:020000040800F2
:100000000000012061020008650200086702000884
:100010007D0200087F020008950200080000000031
:10002000000000000000000000000000AB0200081B
:10003000AD02000800000000AF0200083D05000806
:10004000C5020008C5020008C5020008C502000874
:10005000C5020008C5020008C5020008C502000864
:10006000C5020008C5020008C5020008C502000854
:10007000C5020008C5020008C5020008C502000844
:10008000C5020008C5020008C50200080000000003
:10009000000000000000000000000000C502000891
:1000A000C5020008C5020008C5020008C502000814
:1000B000C5020008C5020008C5020008C502000804
:1000C000C5020008C5020008C5020008C5020008F4
:1000D000C502000899040008B104000800000000EF
:1000E000C5020008C5020008C502000800000000A3
:1000F000000000000000000000000000C502000831
:1001000000000000C5020008C5020008C502000882
:1001100000000000000000000000000000000000DF
:10012000C5020008C5020008C5020008C502000893
:10013000C5020008000000000000000000000000F0
:10014000000000000000000000000000C5020008E0
:10015000C5020008C5020008C5020008C90400085D
:10016000C5020008C50200080000000000000000F1
:10017000000000000000000000000000000000007F
:1001800000000000C50200080000000000000000A0
:10019000C502000807B500F0B7F8274B274883428F
:1001A00026D3274B274900208B422DD300F0F3FBA9
:1001B000254E264C01A9684600F09EF8A41BA41009
:1001C0000025AC4229DC224E224CA41BA4100025A1
:1001D000AC4227DCDDE9000100F0F4FB1E4D1F4CB2
:1001E000641B0646A410002C21DC304600F080F889
:1001F000D3E900120C3353F8044C891A9442CED937
:10020000555815600432F9E753F8082B53F8044C9D
:100210009442C9D910600432FAE756F8253098475D
:100220000135CEE756F8253098470135D0E7013C37
:1002300055F824309847D6E7C8020008E0020008C5
:10024000E0020008F0020008F0020008F0020008D6
:10025000F0020008F0020008F0020008F0020008B6
:1002600014480047FEE71EF0040F0CBFEFF30880B0
:10027000EFF309807146104A1047FEE7FEE71EF0D3
:10028000040F0CBFEFF30880EFF3098071460B4AAF
:100290001047FEE71EF0040F0CBFEFF30880EFF3EA
:1002A00009807146064A1047FEE7FEE7FEE7FEE7D3
:1002B00070470000950100087B02000893020008C7
:0602C000A9020008FEE7A0
:1002C800F80D0008000000201C000020F80D0008B0
:1002D80000000010000000101C0000203800002062
:0802E8000000001000000010EE
:1002F00008B500F015F8000001230360014B0B6006
:10030000704700BF0000002008B500F01BF8024B4A
:10031000024A9A6008BD00BF00ED00E0000000083E
:10032000BFF34F8F0549064BCA6802F4E0621343DE
:10033000CB60BFF34F8F00BFFDE700BF00ED00E0D3
:100340000400FA050C4B1A68002142F001021A6001
:1003500099601A6822F0847222F480321A60074A87
:100360005A601A6822F480221A60D960044B4FF058
:1003700000629A60704700BF0038024010300024CD
:1003800000ED00E000000000F8B5C5890023064636
:100390000C46CB60ADB1012D28D0B388ED0345EA02
:1003A0000335338945EA8325738945EA4325B389B3
:1003B000E560012B3FD035D3022B38D000232360DA
:1003C000F8BD03681EA1D1E900019A009B0F00F05F
:1003D0008DFB6422B0FBF2F102FB11031B013233EF
:1003E000B3FBF2F303EB0113A360D6E7026800212D
:1003F000921841EB010312A1D1E9000100F076FB54
:100400006421B0FBF1F701FB1703DB003233B3FBD0
:10041000F1F303F007025B0002EB071203F4F87339
:100420001344E1E7E36843F00803E360C6E7E368E9
:1004300043F00803E360E36843F00403F5E700BF1B
:1004400040BE402500000000C36843F40053C36071
:10045000704703681A06FCD5416003685B06FCD54B
:10046000036823F040030360704770B506460D46ED
:100470000024E3B20134E95C01B970BD3046FFF7F6
:10048000E8FFF6E70368C3F340131BB143680B7042
:100490000120704718467047034B00221A60034B37
:1004A0001B6803B11847704700100140300000205E
:1004B000034B00221A60034B1B6803B118477047B7
:1004C0000044004028000020034B00221A60034B28
:1004D0001B6803B118477047001401402C0000202E
:1004E000044B1A6822F004021A601A6822F0020211
:1004F0001A60704710E000E0034B00229A601A680F
:1005000022F001021A60704710E000E0024A13680E
:1005100043F001031360704710E000E0044B1960E2
:10052000044B00221A70044B9A605860FFF7EEBF2C
:10053000200000203400002010E000E008B5074B48
:100540001B6803B19847064B1A781AB901221A7032
:10055000FFF7D2FF034B1B6808BD00BF200000203F
:100560003400002010E000E0164B1A6822F400224C
:100570001A609A6822F001029A609A6822F00202D8
:100580009A609A6822F0F0029A609A6842F08002BB
:100590009A609A6822F4E0529A609A689A609A681F
:1005A00022F460429A609A689A601A6842F00102E6
:1005B0001A601A689207FCD51A6822F080721A60D5
:1005C000704700BF003802400138072844D8DFE8F0
:1005D00000F0040C141C242C343C204A0123106B22
:1005E00003FA01F10143116370471C4A0123506B68
:1005F00003FA01F1014351637047184A0123106C5B
:1006000003FA01F1014311647047144A0123506C4D
:1006100003FA01F1014351647047104A0123106D40
:1006200003FA01F10143116570470C4A0123506D33
:1006300003FA01F1014351657047084A0123106E26
:1006400003FA01F1014311667047044A0123506E19
:1006500003FA01F101435166704700BF00380240C0
:100660000F2910B514D8032A12D8022811D0032854
:1006700011D001280CD10B4B1868490003248C4081
:1006800020EA04001860186802FA01F101431960B9
:1006900010BD054BF0E7054B49001C68884024EA73
:1006A0000000EFE7000002400004024000080240A2
:1006B000022A16D102280AD0032810D0012823D1FB
:1006C000134A5368884023EA00005060704711487D
:1006D000436801228A4023EA0202426070470E48C2
:1006E000F6E7012A10D1022809D003280DD00128ED
:1006F0000AD1074B5A688840104358607047054B31
:1007000058688A4002435A607047034BF8E700BFBD
:100710000000024000040240000802400F2910B50A
:1007200014D8032A12D8022811D0032811D0012886
:100730000CD10B4B9868490003248C4020EA04003C
:100740009860986802FA01F10143996010BD054B69
:10075000F0E7054B49009C68884024EA0000EFE779
:10076000000002400004024000080240072910B5C2
:1007700014D8012802D002280ED010BD1948036AEF
:1007800089000F248C4023EA04030362036A02FAFF
:1007900001F119430162F0E71348F0E70F29ECD8A3
:1007A000012810D00228E8D10E480839436A890090
:1007B0000F248C4023EA04034362436A02FA01F1E6
:1007C00019434162D9E707480839446A8B000F2171
:1007D000994024EA01014162416A02FA03F30B43A2
:1007E0004362CAE70000024000040240144A134674
:1007F000D168C903FCD411690029BFBF11495160F8
:1008000001F1883151601A6922F078021A611A697F
:1008100042EAC00018611A6942F002021A611A69BC
:1008200042F480321A61064BDA68D203FCD4DA68EB
:1008300042F00102DA601A6922F002021A6170477E
:10084000003C02402301674510B5012420460134D5
:10085000E4B2FFF7CBFF082CF8D110BD30B5184C2F
:100860002346E568ED03FCD42569002DBFBF154D77
:10087000656005F1883565601C6924F440741C616D
:100880001C6944F480741C611C6944F001041C61FF
:100890000B4B01EB4202401A914204D1DA6822F07C
:1008A0000102DA6030BD441831F8025B2580DC6853
:1008B000E403FCD4DC6844F00104DC60ECE700BF36
:1008C000003C024023016745A0F130030246D8B244
:1008D000092808D9A2F14103052B03D8A2F137005A
:1008E000C0B27047002070472DE9F04701469AB02A
:1008F0004078FFF7E9FF04468878FFF7E5FF0746F1
:10090000C878FFF7E1FF81460879FFF7DDFF8046F1
:100910004879FFF7D9FF05468879FFF7D5FF40F002
:10092000006646EA093646EA082647EA041746EA18
:100930000516C7F3460701F109054FF0000801A9A4
:100940005FFA88F39F4205F1040506D83A4630461F
:10095000FFF784FF1AB0BDE8F08715F8040CFFF725
:10096000B3FF824615F8030CFFF7AEFF044615F8F7
:10097000020CFFF7A9FF814615F8010CFFF7A4FF51
:10098000240244EA0A34044344EA091421F81840D2
:1009900008F10108D4E77047054B00221A70054B97
:1009A000054A1A60054B064A1B681360184700BFCA
:1009B0001800002008ED00E0004000080440000896
:1009C00024000020F0B59BB0FFF7CEFD00210120F0
:1009D000FFF7FAFD11210320FFF7F6FD0F21052097
:1009E000FFF7F2FD012210460021FFF739FE022237
:1009F00000210120FFF75CFE002211460120FFF7D5
:100A00008DFE022211460120FFF72AFE0222114626
:100A10000120FFF74DFE002202210120FFF77EFE9C
:100A2000072202210120FFF7A1FE0222032101205B
:100A3000FFF716FE022203210120FFF739FE0022F4
:100A400003210120FFF76AFE072203210120FFF79F
:100A50008DFE1F481F49204F4FF416530360FFF7C8
:100A600093FC1C48FFF7F0FCFFF73AFD1B491C48BC
:100A7000FFF754FD0126002401AB1D193B78012B23
:100A800001D01BB0F0BD29461248FFF7FBFC01283E
:100A9000F4D1FFF731FD9DF80C30312B03D10F4914
:100AA0001048FFF73BFD1AAB234413F8645C65B9AB
:100AB0000EB1FFF7C9FE01A8FFF716FF0A49054866
:100AC000FFF7D3FC00262C46D6E70134E5B2FAE75F
:100AD0000800002000440040180000209909000888
:100AE000C0E1E40040420F00EC0D000853B94AB9E0
:100AF000002908BF00281CBF4FF0FF314FF0FF3026
:100B000000F072B9ADF1080C6DE904CE00F006F802
:100B1000DDF804E0DDE9022304B070472DE9F04779
:100B2000089E04468846002B4BD18A42154667D959
:100B3000B2FA82F24AB1C2F1200701FA02F320FAB6
:100B400007F7954047EA030894404FEA154E230CF7
:100B5000B8FBFEF71FFA85FC0EFB178843EA084333
:100B600007FB0CF1994209D9EB1807F1FF3080F02F
:100B70001B81994240F21881023F2B445B1AA4B2B8
:100B8000B3FBFEF00EFB103344EA034400FB0CFC05
:100B9000A44509D92C1900F1FF3380F00781A44541
:100BA00040F2048102382C4440EA0740A4EB0C04D4
:100BB00000271EB1D4400023C6E900433946BDE8F2
:100BC000F0878B4209D9002E00F0EB800027C6E9A0
:100BD000000138463946BDE8F087B3FA83F7002FA5
:100BE00047D18B4202D3824200F2FA80841A61EB31
:100BF000030301209846002EE0D0C6E90048DDE757
:100C000002B9FFDEB2FA82F2002A40F08F80491B5F
:100C10004FEA154E1FFA85F80127B1FBFEFC230CA5
:100C20000EFB1C1143EA014308FB0CF1994207D962
:100C3000EB180CF1FF3002D2994200F2CD808446CD
:100C4000591AA3B2B1FBFEF00EFB101443EA0444A0
:100C500008FB00F8A04507D92C1900F1FF3302D298
:100C6000A04500F2B6801846A4EB080440EA0C4008
:100C70009FE7C7F1200CBB4022FA0CFE4EEA030EA0
:100C800001FA07F420FA0CF521FA0CF34FEA1E489A
:100C90002543B3FBF8F92C0C08FB19331FFA8EFA25
:100CA00044EA034309FB0AF49C4202FA07F200FA01
:100CB00007F10BD91EEB030309F1FF3080F08780A9
:100CC0009C4240F28480A9F1020973441B1BADB21F
:100CD000B3FBF8F008FB103345EA034400FB0AFAC3
:100CE000A24508D91EEB040400F1FF336BD2A245E4
:100CF00069D90238744440EA0940A0FB0289A4EB98
:100D00000A044C45C2464B4654D351D0002E69D0FC
:100D1000B1EB0A0564EB030404FA0CFCFD40FC4053
:100D20004CEA0505C6E90054002747E7C2F1200355
:100D300020FA03F7954001FA02F021FA03F34FEA93
:100D4000154E3843010CB3FBFEF71FFA85F80EFB76
:100D5000173341EA034107FB08F38B4204FA02F41C
:100D600007D9691807F1FF3C2FD28B422DD9023FDA
:100D70002944CB1A81B2B3FBFEF00EFB103341EADB
:100D8000034100FB08F38B4207D9691800F1FF3CCF
:100D900017D28B4215D902382944C91A40EA0747AD
:100DA0003BE73746304609E70746E7E61846FBE6E5
:100DB0004145ABD2B8EB020A69EB0E02013813468B
:100DC000A4E76046E9E7184695E76746D1E781461C
:100DD0007CE702382C4447E7ACF1020C2B442FE7A8
:0F0DE000384608E73746E9E6704700BF4F4B003B
:080DF0002CFDFF7F0100000053
:100DF8001C0000200000000080250000000000000A
:0C0E0800000000000200010001FFFFFFDD
:040000050800019559
:00000001FF
