:020000040800F2
:1000000000000120C5020008CB020008CF02000852
:1000100041030008450300088D03000800000000AC
:10002000000000000000000000000000D5030008F0
:10003000D903000800000000DD0300085D08000887
:10004000F1030008F1030008F1030008F1030008C0
:10005000F1030008F1030008F1030008F1030008B0
:10006000F1030008F1030008F1030008F1030008A0
:10007000F1030008F1030008F1030008F103000890
:10008000F1030008F1030008F1030008000000007C
:10009000000000000000000000000000F103000864
:1000A000F1030008F1030008F1030008F103000860
:1000B000F1030008F1030008F1030008F103000850
:1000C000F1030008F1030008F1030008F103000840
:1000D000F1030008A9070008C50700080000000098
:1000E000F1030008F1030008F1030008000000001C
:1000F000000000000000000000000000F103000804
:1001000000000000F1030008F1030008F1030008FB
:1001100000000000000000000000000000000000DF
:10012000F1030008F1030008F1030008F1030008DF
:10013000F1030008000000000000000000000000C3
:10014000000000000000000000000000F1030008B3
:10015000F1030008F1030008F1030008E1070008BB
:10016000F1030008F1030008000000000000000097
:10017000000000000000000000000000000000007F
:1001800000000000F1030008000000000000000073
:10019000F103000800B583B000F0BAF9384B394AD2
:1001A0001360394A1360394900E02146384B9942BF
:1001B0000BD20A684B6801F10C0488689842F4D9A4
:1001C0001168196004330432F8E72E4B1A68314B7A
:1001D0009A4200D0FEE72C4B1A682F4B9A42F9D175
:1001E000274B2E4A13602E4A13602E4B05E0002049
:1001F000106004329342FAD80B462B4A934204D241
:10020000194651F8082B5B68F4E7244B1B6813B9B7
:10021000234B1B6803B1FEE700F0BDFD694601A852
:1002200000F022F9214C224BE41AA4100025AC4224
:1002300014DC204C204BE41AA4100025AC4213DC43
:100240000099019800F0C0FD05461C4C1C4BE41AB7
:10025000A410002C0EDC284600F0E2F8144B53F8F2
:10026000253098470135E2E7134B53F8253098477E
:100270000135E3E7013C124B53F824309847E8E797
:10028000BABADECA0000002084000020F40300088F
:100290000C040008785634123254769888000020F6
:1002A000380100200C0400081C0400081C0400088D
:1002B0001C0400081C0400081C0400081C0400089E
:1002C0001C04000808B5FFF765FF00BEFEE71EF03E
:1002D000040F0CBFEFF30880EFF309807146414A29
:1002E00010472DE9F04182B004468846124B5E6B00
:1002F0009F6B9D6A1B6B13F0020F03D00E4BDB6AE2
:10030000002B0CDB0D4800F0B7F8CDF800803B4621
:1003100032462946204600F007F900BEFEE74BF6BC
:10032000AB6100F07BF90028ECD0034B4FF00042AA
:10033000DA6202B0BDE8F08100ED00E0D41B0008F5
:1003400000BEFEE71EF0040F0CBFEFF30880EFF3D2
:1003500009807146244A10472DE9F04182B00446D5
:100360008846084B5E6B9F6B9D6A074800F084F8D7
:10037000CDF800803B4632462946204600F0D4F8AE
:1003800000BEFEE700ED00E0E41B00081EF0040FD5
:100390000CBFEFF30880EFF309807146134A104752
:1003A0002DE9F04182B004468846084B5E6B9F6B96
:1003B0009D6A074800F060F8CDF800803B46324661
:1003C0002946204600F0B0F800BEFEE700ED00E050
:1003D000F01B000800BEFEE700BEFEE700BEFEE721
:1003E00070470000E302000859030008A103000859
:0403F00000BEFEE766
:1003F4003C1C000800000020880000203C1C000871
:100404000000001000000010880000203C010020C3
:080414000000001000000010C0
:10042000FEE7000008B503460C4A12685AB10B4AB1
:100430001068033323F003030344094A934206D8A8
:10044000064A136008BD054A06491160EFE700F04F
:10045000B9FE0C2303604FF0FF30F3E78C0000205F
:1004600000FC00203C01002001230360014B0B60D5
:10047000704700BF040000200FB400B583B004AB88
:1004800053F8042B01938021064800F0CDFE00288C
:1004900003DD0146034800F037F803B05DF804EBD4
:1004A00004B07047940000202DE9F04385B0044665
:1004B0000F4643560BB10E461EE004252846214642
:1004C000ABBE0446384605B0BDE8F08314F9011B05
:1004D00004AA1A4402F8101C0133AB42F6D304AA52
:1004E0001344002203F8102C4FF00408E94640465C
:1004F0004946ABBE8046761B002EE3D03546102E13
:1005000028BF10250023E8E708B5FFF7CDFF08BD99
:1005100008B500F093F8024A024B9A6008BD00BF8C
:100520000000000800ED00E0F8B504460D4617464F
:100530001E462748FFF7A0FF21682648FFF79CFFCB
:1005400061682548FFF798FFA1682448FFF794FFEA
:10055000E1682348FFF790FF21692248FFF78CFFED
:1005600061692148FFF788FFA1692048FFF784FFF0
:10057000E1691F48FFF780FF1E48FFF77DFF29460E
:100580001D48FFF779FF1D4CE16A1D48FFF774FF16
:10059000216B1C48FFF770FFE16B1B48FFF76CFFF6
:1005A00015F0800F0AD115F4004F0CD11748FFF752
:1005B00063FF06991648FFF75FFFF8BD39461548F7
:1005C000FFF75AFFEFE731461348FFF755FFEDE716
:1005D000B81A0008C81A0008D81A0008E81A000853
:1005E000F81A0008081B0008181B0008281B000840
:1005F000381B0008481B0008541B000800ED00E0F1
:10060000641B0008741B0008841B0008B41B00084E
:10061000BC1B0008941B0008A41B000883691A88EF
:100620008A4201D0002070470268033A012A03D8A9
:100630000233836101207047002070470C4B1A6819
:1006400042F001021A60002199601A6822F0847257
:1006500022F480321A60074A5A601A6822F4802213
:100660001A60D960044B4FF000629A60704700BF77
:10067000003802401030002400ED00E000000000CF
:1006800070B504460D460023CB60C389BBB1012B76
:1006900032D0E289A3881B0343EAC233228943EAAA
:1006A0008223628943EA4223EB60A389012B48D06D
:1006B000002B41D0022B49D000232B6070BD036872
:1006C0009A009B0F26A1D1E9000100F0FBFB264E0A
:1006D000A6FB00325109642202FB110213013233DE
:1006E000A6FB03235B0903F0F00202EB011203F007
:1006F0000F031344AB60CCE702680021921841EB72
:10070000010317A1D1E9000100F0DCFB164EA6FBA6
:1007100000325109642202FB1102D3003233A6FBDE
:1007200003235B095A0002F4F87202EB011203F092
:1007300007031344AB60ACE7EB6843F00803EB60DE
:10074000BAE7EB6843F00403EB60B5E7EB6843F00E
:100750000803EB60EB6843F00403EB60ACE700BF19
:1007600040BE4025000000001F85EB51C36843F4E4
:100770000053C3607047036813F0800FFBD04160E3
:10078000036813F0400FFBD0036823F040030360BD
:100790007047036813F0200F03D043680B700120EB
:1007A000704700207047000008B5044B00221A6013
:1007B000034B1B6803B1984708BD00BF0010014000
:1007C0003001002008B5044B00221A60034B1B685F
:1007D00003B1984708BD00BF004400402801002035
:1007E00008B5044B00221A60034B1B6803B19847FD
:1007F00008BD00BF001401402C010020044B1A6802
:1008000022F004021A601A6822F002021A6070478D
:1008100010E000E0034B00229A601A6822F0010207
:100820001A60704710E000E0024A136843F00103C9
:100830001360704710E000E008B5054B1960002216
:10084000044B1A70044B9A605860FFF7EDFF08BD27
:10085000140100203401002010E000E008B5084B2E
:100860001B6803B19847074B1B7813B1064B1B68F5
:1008700008BD044B01221A70FFF7CCFFF6E700BF5A
:10088000140100203401002010E000E01B4B1A6826
:1008900022F400221A609A6822F002029A609A6892
:1008A00042F001029A609A6822F0F0029A609A6817
:1008B00042F080029A609A6822F4E0529A609A6844
:1008C0009A609A6822F460429A609A689A601A68FC
:1008D00042F480221A601A6842F480321A60074B90
:1008E0001B6813F4003FFAD0044B1A6822F001028F
:1008F0001A601A6822F080721A607047003802404D
:100900000138072844D8DFE800F0040C141C242C1C
:10091000343C2048036B012202FA01F119430163C0
:1009200070471C48436B012202FA01F119434163ED
:1009300070471848036C012202FA01F1194301645F
:1009400070471448436C012202FA01F119434164D3
:1009500070471048036D012202FA01F11943016545
:1009600070470C48436D012202FA01F119434165B9
:1009700070470848036E012202FA01F1194301662B
:1009800070470448436E012202FA01F1194341669F
:10099000704700BF003802400F2934D8032A32D8EC
:1009A00010B4022813D003281FD0012801D010BC96
:1009B0007047154B1868490003248C4020EA040056
:1009C0001860186802FA01F101431960EFE70F4B54
:1009D0001868490003248C4020EA04001860186855
:1009E00002FA01F101431960E1E7094B1868490077
:1009F00003248C4020EA04001860186802FA01F110
:100A000001431960D3E77047000002400004024030
:100A100000080240022A02D0012A21D07047022891
:100A20000CD0032813D00128F8D11C4843680122B8
:100A300002FA01F123EA0101416070471848436856
:100A4000012202FA01F123EA0101416070471548D1
:100A50004368012202FA01F123EA01014160704773
:100A600002280AD0032810D00128D7D10B484368A8
:100A700002FA01F1194341607047094843680122B5
:100A800002FA01F1194341607047064843680122A8
:100A900002FA01F119434160C0E700BF00000240C3
:100AA00000040240000802400F2934D8032A32D83B
:100AB00010B4022813D003281FD0012801D010BC85
:100AC0007047154B9868490003248C4020EA0400C5
:100AD0009860986802FA01F101439960EFE70F4BC3
:100AE0009868490003248C4020EA040098609868C4
:100AF00002FA01F101439960E1E7094B9868490066
:100B000003248C4020EA04009860986802FA01F1FE
:100B100001439960D3E7704700000240000402409F
:100B20000008024010B4072921D8012803D0022868
:100B30000FD010BC7047214B186A89000F248C40DD
:100B400020EA04001862186A02FA01F101431962EE
:100B5000EFE71B4B186A89000F248C4020EA040041
:100B60001862186A02FA01F101431962E1E70F29DC
:100B7000DFD8012811D00228DBD11048446AA1F146
:100B800008039B000F21994024EA01014162446A55
:100B900002FA03F121434162CBE7084B5C6AA1F101
:100BA000080080000F21814024EA010159625C6A3B
:100BB00002FA00F121435962BBE700BF0000024086
:100BC00000040240174BDB6813F4803FFAD1154B49
:100BD0001B69002B05DA134B134A5A6002F1883265
:100BE0005A60104B1A6922F078021A611A6942EAB7
:100BF000C00018611A6942F002021A611A6942F4CF
:100C000080321A61074BDB6813F4803FFAD1054B41
:100C1000DA6842F00102DA601A6922F002021A610F
:100C2000704700BF003C02402301674510B5012416
:100C300004E02046FFF7C6FF0134E4B2072CF8D9E0
:100C400010BD000030B41B4BDB6813F4803FFAD1B9
:100C5000184B1B69002B05DA164B174C5C6004F12E
:100C600088345C60134B1C6924F440741C611C695B
:100C700044F480741C611C6944F001041C6100246C
:100C80000FE031F8143020F8023B0A4BDB6813F414
:100C9000803FFAD1074DEB6843F00103EB6001346C
:100CA000A4B29442EDD3034AD36823F00103D36086
:100CB00030BC7047003C0240230167450246A0F16A
:100CC0003003D8B2092809D9A2F14103DBB2052BC0
:100CD00003D8A2F13700C0B27047002070472DE959
:100CE000F04F9BB006464078FFF7E8FF8046B078AB
:100CF000FFF7E4FF40EA08185FFA88F8F078FFF79A
:100D0000DDFF81463079FFF7D9FF07467079FFF79D
:100D1000D5FF0546B079FFF7D1FF3F0247EA093713
:100D200047EA0517074347F00067002528E04FEA28
:100D3000850B0BF10903F05CFFF7C0FF82460BF156
:100D40000A03F05CFFF7BAFF04460BF10B03F05CFB
:100D5000FFF7B4FF81460BF10C0B16F80B00FFF701
:100D6000ADFF230243EA0A331BB243EA09131BB265
:100D700018431AAB03EB450323F8640C0135EDB2BD
:100D80004FEA5802AA42D2D801A93846FFF75AFFC3
:100D90001BB0BDE8F08F704708B5064B00221A70F3
:100DA000054B064A1A60064B1B68064A13609847B3
:100DB00008BD00BF1C00002008ED00E00040000856
:100DC000044000081801002070B59AB0FFF75EFDDE
:100DD00000210120FFF794FD11210320FFF790FD72
:100DE0000F210520FFF78CFD022211460120FFF79D
:100DF000D3FD022211460120FFF70CFE0022022142
:100E00000120FFF751FE072202210120FFF78AFE91
:100E1000022203210120FFF7BFFD0222032101204E
:100E2000FFF7F8FD002203210120FFF73DFE072216
:100E300003210120FFF776FE1D484FF4165303608F
:100E40001C4C2146FFF71CFC2046FFF78FFCFFF7E8
:100E5000D5FC012600240BE001A8FFF740FF4B2141
:100E60001448FFF788FC2C469DF80C30312B18D025
:100E7000114B1B78012B19D101AB19190D48FFF744
:100E800088FCFFF7C7FC1AAB234413F8645C2DB948
:100E9000012EE1D1FFF7CAFE2E46DDE70134E4B2B0
:100EA000E2E706490648FFF7C7FCE1E71AB070BD64
:100EB0000C000020004400401C000020990D000898
:100EC00040420F0053B94AB9002908BF00281CBF8F
:100ED0004FF0FF314FF0FF3000F072B9ADF1080C68
:100EE0006DE904CE00F006F8DDF804E0DDE9022348
:100EF00004B070472DE9F047089E04468846002B51
:100F00004BD18A42154667D9B2FA82F24AB1C2F190
:100F1000200701FA02F320FA07F7954047EA030891
:100F200094404FEA154E230CB8FBFEF71FFA85FCE0
:100F30000EFB178843EA084307FB0CF1994209D9D5
:100F4000EB1807F1FF3080F01B81994240F21881C5
:100F5000023F2B445B1AA4B2B3FBFEF00EFB10332E
:100F600044EA034400FB0CFCA44509D92C1900F108
:100F7000FF3380F00781A44540F2048102382C44FD
:100F800040EA0740A4EB0C0400271EB1D440002324
:100F9000C6E900433946BDE8F0878B4209D9002EE7
:100FA00000F0EB800027C6E9000138463946BDE86D
:100FB000F087B3FA83F7002F47D18B4202D38242E6
:100FC00000F2FA80841A61EB030301209846002E98
:100FD000E0D0C6E90048DDE702B9FFDEB2FA82F2EE
:100FE000002A40F08F80491B4FEA154E1FFA85F802
:100FF0000127B1FBFEFC230C0EFB1C1143EA01434D
:1010000008FB0CF1994207D9EB180CF1FF3002D222
:10101000994200F2CD808446591AA3B2B1FBFEF08A
:101020000EFB101443EA044408FB00F8A04507D95E
:101030002C1900F1FF3302D2A04500F2B680184609
:10104000A4EB080440EA0C409FE7C7F1200CBB402A
:1010500022FA0CFE4EEA030E01FA07F420FA0CF510
:1010600021FA0CF34FEA1E482543B3FBF8F92C0C88
:1010700008FB19331FFA8EFA44EA034309FB0AF40A
:101080009C4202FA07F200FA07F10BD91EEB0303A8
:1010900009F1FF3080F087809C4240F28480A9F102
:1010A000020973441B1BADB2B3FBF8F008FB10330D
:1010B00045EA034400FB0AFAA24508D91EEB0404E2
:1010C00000F1FF336BD2A24569D90238744440EA7B
:1010D0000940A0FB0289A4EB0A044C45C2464B46DA
:1010E00054D351D0002E69D0B1EB0A0564EB030450
:1010F00004FA0CFCFD40FC404CEA0505C6E900542E
:10110000002747E7C2F1200320FA03F7954001FAD0
:1011100002F021FA03F34FEA154E3843010CB3FBFA
:10112000FEF71FFA85F80EFB173341EA034107FB70
:1011300008F38B4204FA02F407D9691807F1FF3C5F
:101140002FD28B422DD9023F2944CB1A81B2B3FB57
:10115000FEF00EFB103341EA034100FB08F38B4223
:1011600007D9691800F1FF3C17D28B4215D9023814
:101170002944C91A40EA07473BE73746304609E7A2
:101180000746E7E61846FBE64145ABD2B8EB020A54
:1011900069EB0E0201381346A4E76046E9E71846FA
:1011A00095E76746D1E781467CE702382C4447E75C
:1011B000ACF1020C2B442FE7384608E73746E9E646
:1011C000704700BF014B1868704700BF2000002027
:1011D00030B5141E05469BB0184605DA8B232B60EC
:1011E0004FF0FF301BB030BD4FF40273ADF80C3040
:1011F00014BF04F1FF332346029305934FF6FF73A8
:1012000000910491ADF80E3002461E9B69462846B7
:1012100000F072F8431CBCBF8B232B60002CE1D084
:10122000009B00221A70DDE707B5009313460A46BB
:10123000014603480068FFF7CBFF03B05DF804FBED
:10124000200000202DE9F0478E689E4282460C4621
:101250009046994637D88A8912F4906F31D0256824
:1012600009696F1A6569022305EB450595FBF3F5DE
:1012700009F101033B449D4238BF1D46530530D55B
:10128000294600F07FFB064650B90C23CAF800300F
:10129000A38943F04003A3814FF0FF30BDE8F087FE
:1012A0003A46216900F0FCFAA38923F4906343F0E5
:1012B0008003A381266165613E44ED1B2660A56025
:1012C0004E464E4500D94E4632464146206800F013
:1012D000F2FAA3689B1BA36023681E4426600020CB
:1012E000DCE72A4600F0A8FB06460028E2D1216987
:1012F000504600F0F9FAC8E72DE9F04F9DB080465E
:1013000003938B891D060C4616460FD50B696BB9E6
:10131000402100F037FB2060206128B90C23C8F879
:1013200000304FF0FF30C7E0402363610023099392
:1013300020238DF8293030238DF82A304FF0010B0F
:1013400037463D4615F8013B0BB1252B3ED1B7EB97
:10135000060A0BD05346324621464046FFF772FF3D
:10136000013000F0A480099B534409933B78002B83
:1013700000F09D8000234FF0FF32CDE90523049358
:1013800007938DF853301A932F46052217F8011B47
:101390004F4800F035FA049BD0B9D90644BF20224B
:1013A0008DF853201A0744BF2B228DF853202A783A
:1013B0002A2A15D0079A2F4600200A25394611F807
:1013C000013B303B092B4DD9B8B10FE02F46B8E7B0
:1013D0003F4A801A0BFA00F0184304903D46D3E7C9
:1013E000039A111D12680391002A01DB079204E0A1
:1013F000524243F00203079204933B782E2B0CD108
:101400007B782A2B33D1039B1A1D1B680392002B78
:10141000B8BF4FF0FF33023705932E4D39780322C2
:10142000284600F0EDF938B14023401B03FA00F0E4
:10143000049B034301370493397827488DF828101B
:1014400006227E1C00F0DCF9002838D0234B13BBA9
:10145000039B073323F0070308330393099B4B4493
:1014600009936DE705FB023201200F46A6E7002332
:101470000137059319460A25384610F8012B303AF2
:10148000092A03D9002BC8D00591C6E705FB012125
:1014900001230746F0E703AB00932246104B04A953
:1014A0004046AFF30080B0F1FF3F8146D6D1A3891B
:1014B0005B063FF536AF09981DB0BDE8F08F03AB72
:1014C00000932246064B04A9404600F081F8EAE763
:1014D000001C0008061C00080A1C00080000000090
:1014E000451200082DE9F04791461F468A680B69AE
:1014F000DDF820809342B8BF1346C9F8003091F858
:10150000432006460C4612B10133C9F80030236867
:10151000990642BFD9F800300233C9F80030256877
:1015200015F0060507D104F1190AE368D9F800207F
:101530009B1AAB4228DC94F843302268003318BF72
:10154000012392062DD404F1430239463046C047A8
:10155000013020D02368E568D9F8002003F00603A5
:10156000042B08BFAD1AA36822690CBF25EAE575F4
:1015700000259342C4BF9B1AED184FF000091A349E
:101580004D451AD1002008E0012352463946304625
:10159000C047013003D14FF0FF30BDE8F08701357F
:1015A000C3E7E1185A1C302081F84300224494F824
:1015B000451082F843100233C5E70123224639461D
:1015C0003046C0470130E6D009F10109D8E70000F4
:1015D0002DE9F04301F1430C0C46097E85B06E29DC
:1015E0001746064698460C9A00F0B38022D8632925
:1015F00036D00AD8002900F0B980582900F083803D
:1016000004F1420584F8421032E0642901D06929CE
:10161000F6D120681368050603F104012AD51B687A
:101620001160002B03DA2D225B4284F843206F48BF
:101630000A2239E0732900F09D8008D86F2920D054
:101640007029DDD1236843F02003236003E075296E
:1016500017D07829D4D1782384F84530644855E0F0
:101660001368191D1B68116004F1420584F84230AB
:1016700001238CE01B68116010F0400F18BF1BB2F3
:10168000CFE713682568181D1060280601D51B6870
:1016900002E06806FBD51B8854486F2914BF0A2254
:1016A0000822002184F843106568A560002DC0F26F
:1016B0009580216821F004012160002B3DD1002D8F
:1016C00040F08E806546082A0BD12368DB0708D5D9
:1016D000236962689A42DEBF302305F8013C05F1B8
:1016E000FF35ACEB05032361CDF800803B4603AA30
:1016F00021463046FFF7F6FE01304DD14FF0FF3066
:1017000005B0BDE8F083394884F8451013682168B6
:101710001D1D1B6815600A060BD5CA0744BF41F0A2
:10172000200121601BB9226822F0200222601022D1
:10173000B7E74D0648BF9BB2EFE76546B3FBF2F152
:1017400002FB1133C35C05F8013D0B460029F5D1BE
:10175000B9E7136825686169181D106028061B68C1
:1017600001D5196002E06A06FBD5198000232361C8
:101770006546B9E71368191D11601D68626800218C
:10178000284600F03DF808B1401B606063682361A3
:10179000002384F84330A7E723692A4639463046B8
:1017A000C0470130AAD023689B0713D4E068039B8D
:1017B0009842B8BF1846A3E701234A463946304647
:1017C000C04701309AD00135E368039A9B1AAB42B7
:1017D000F2DCEBE7002504F11909F5E7002BACD1A9
:1017E000037884F8423004F142056CE7111C0008CC
:1017F000221C0008000000000000000000000000A3
:1018000001F0FF01102A2BDB10F0070F08D010F8B1
:10181000013B013A8B422DD010F0070F42B3F6D1B5
:10182000F0B441EA012141EA014122F007047FF0CE
:1018300000070023F0E80256083C85EA010586EA25
:10184000010685FA47F5A3FA87F586FA47F6A5FA61
:1018500087F68EB9EED1F0BC01F0FF0102F007026D
:1018600032B110F8013B013A83EA010313B1F8D118
:101870000020704701387047002D06BF35460338F9
:10188000073815F0010F07D1013015F4807F02BF32
:10189000013015F4C03F0130F0BC0138704700BF83
:1018A00010B5431E0A44914200D110BD11F8014BFE
:1018B00003F8014FF7E7884210B501EB020307D8A0
:1018C000421E99420AD011F8014B02F8014FF8E785
:1018D0008342F5D98118D21AD34200D110BD13F832
:1018E000014D01F8014DF7E738B50546002945D00F
:1018F00051F8043C0C1F002BB8BFE41800F0D2F8DC
:101900001F4A1368104633B9636014602846BDE867
:10191000384000F0C8B8A3420CD92168621893423D
:1019200004BF1A685B68636004BF521822600460D9
:10193000ECE713465A680AB1A242FAD91968581856
:10194000A0420BD120680144581882421960DDD1B1
:10195000106852685A6001441960D7E702D90C2315
:101960002B60D3E7206821188A4204BF11685268AF
:10197000626004BF091821605C60C7E738BD00BF22
:101980001C01002070B5CD1C25F0030508350C2D79
:1019900038BF0C25002D064601DBA94203D90C23D4
:1019A0003360002070BD00F07DF8214A14682146A4
:1019B00091B9204C23681BB9304600F063F82060D1
:1019C0002946304600F05EF8431C24D10C233360D6
:1019D000304600F068F8E4E70B685B1B18D40B2B6B
:1019E0000FD90B60CD50CC18304600F05CF804F1F4
:1019F0000B00231D20F00700C31AD3D05A42E25037
:101A0000D0E78C424B6816BF636013600C46EBE76F
:101A10000C464968CCE7C41C24F00304A04205D05E
:101A2000211A304600F02EF80130CFD02560DBE7D8
:101A30001C01002020010020F8B5074614460E4680
:101A400021B91146BDE8F840FFF79CBF22B9FFF766
:101A50004BFF25462846F8BD00F026F8A0420FD2DD
:101A600021463846FFF78EFF05460028F2D0314662
:101A70002246FFF715FF31463846FFF735FFE9E705
:101A80003546E7E738B5064C00230546084623608F
:101A9000FEF7C8FC431C02D1236803B12B6038BD9C
:101AA000240100207047704751F8043C181F002B98
:101AB000BCBF0B58C0187047537461636B206672CB
:101AC000616D653A0A000000205230203D2020253B
:101AD0003038580A00000000205231203D202025D7
:101AE0003038580A00000000205232203D202025C6
:101AF0003038580A00000000205233203D202025B5
:101B00003038580A0000000020523132203D202594
:101B10003038580A00000000204C52203D2020257B
:101B20003038580A00000000205043203D20202576
:101B30003038580A0000000020505352203D202524
:101B40003038580A000000004653522F4641523A9E
:101B50000A0000002043465352203D202025303803
:101B6000580A00002048465352203D202025303896
:101B7000580A00002044465352203D20202530388A
:101B8000580A00002041465352203D20202530387D
:101B9000580A0000204D4D464152203D2025303846
:101BA000580A00002042464152203D20202530386E
:101BB000580A00004D6973630A000000204C522F40
:101BC0004558435F52455455524E3D2025303858B4
:101BD0000A0000005B486172644661756C745D0ABE
:101BE000000000005B4275734661756C745D0A000D
:101BF0005B55736167654661756C745D0A00000032
:101C0000232D302B2000686C4C00656667454647E5
:101C10000030313233343536373839414243444568
:101C200046003031323334353637383961626364D7
:031C3000656600E6
:081C3400C0F2FF7F0100000077
:101C3C00785634129000002000000000802500002F
:101C4C0000000000000000000200000001FFFFFF88
:101C5C002400002000000000000000000000000034
:101C6C000000000000000000000000000000000068
:101C7C000000000000000000000000000000000058
:101C8C000000000000000000000000000000000048
:101C9C000000000000000000000000000000000038
:101CAC000000000000000000000000000000000028
:081CBC0000000000325476988C
:040000050800019559
:00000001FF
